:100000000C9434000C9451000C9451000C94CA03CD
:100010000C9451000C9451000C9451000C9451001C
:100020000C9451000C9451000C9451000C9451000C
:100030000C9451000C9451000C9451000C945100FC
:100040000C9451000C9451000C9451000C945100EC
:100050000C9451000C9451000C9451000C945100DC
:100060000C9451000C94510011241FBECFEFD8E026
:10007000DEBFCDBF11E0A0E0B1E0E8EBFEE002C0E2
:1000800005900D92A83CB107D9F712E0A8ECB1E0B9
:1000900001C01D92AE30B107E1F70E946F020C94CF
:1000A0005A070C940000CF93DF93EC018630910542
:1000B00038F5FC01EE0FFF1FDF01AC52BE4F0D9073
:1000C000BC91A02DE853FE4F0190F081E02DCD01B1
:1000D00001970A9718F481E090E007C0AB2B19F064
:1000E00080E090E002C082E090E0E817F90741F07C
:1000F000CC0FDD1FC853DE4F9983888381E001C098
:1001000080E0DF91CF910895A8ECB1E0E0EEF1E05E
:1001100021E010828D919C911197019709F4208321
:100120001296319681E0A43DB80799F708950F9390
:100130001F9310E000E0812F90E00E945300811196
:1001400001E01F5F1630B9F70023A9F081E080932A
:10015000A101A8ECB1E0E0EEF1E021E010828D9188
:100160009C911197019709F420831296319681E0B2
:10017000A43DB80799F71F910F9108950F931F930E
:10018000CF93DF930E94CB04C0E0D0E005E01BC01A
:10019000812F90E00E94A703882311F490E004C00F
:1001A0001F5F1630A9F791E0802F8A95F1F7992308
:1001B00029F0C4EDD1E001E010E007C0219687E20C
:1001C000C031D807B1F310E0E3CF812F90E00E9457
:1001D0005C0399838883892B09F400E0812F90E0E8
:1001E0000E94B1031F5F2296163079F7802FDF91AE
:1001F000CF911F910F9108950E94E00680E060E08A
:100200000E94C90680E091E00E94D30681E060E090
:100210000E94C9068DE091E00E94D30680E197E23A
:1002200020E931E0F9013197F1F70197D9F7089505
:100230000E94E00680E060E00E94C9068EE191E045
:100240000E94D30681E060E00E94C9068FE291E03F
:100250000E94D30688E99AE320E931E0F901319759
:10026000F1F70197D9F70E94E00680E060E00E9474
:10027000C9068FE391E00E94D30681E060E00E940E
:10028000C9068FE491E00E94D30688E99AE320E949
:1002900031E0F9013197F1F70197D9F70895E0EED0
:1002A000F1E090E08081813009F49F5F319681E038
:1002B000E63EF807B9F7963099F40E94E00680E030
:1002C00062E00E94C9068EE591E00E94D30681E0BB
:1002D00061E00E94C9068BE691E00E94D306089572
:1002E0000E94E00680E060E00E94C90685E791E098
:1002F0000E94D3068091E001805D0E94860689E716
:1003000091E00E94D3068091E101805D0E94860603
:100310008EE791E00E94D3068091E201805D0E9409
:10032000860681E060E00E94C90683E891E00E94B1
:10033000D3068091E301805D0E94860687E891E004
:100340000E94D3068091E401805D0E9486068CE8BD
:1003500091E00E94D3068091E501805D0E948606AF
:1003600008956091D4017091D50180E090E00E94E1
:10037000FD046091D6017091D70181E090E00E9468
:10038000FD046091D8017091D90182E090E00E9453
:10039000FD046091DA017091DB0183E090E00E943E
:1003A000FD046091DC017091DD0184E090E00E9429
:1003B000FD046091DE017091DF0185E090E00E9414
:1003C000FD0408951F93CF93DF930E94E00680E021
:1003D00060E00E94C90681E991E00E94D30610E026
:1003E000C0E9D1E080E090E065E070E00E94FD04AB
:1003F00081E090E065E070E00E94FD0482E090E022
:1004000065E070E00E94FD0483E090E065E070E04C
:100410000E94FD0484E090E065E070E00E94FD042D
:1004200085E090E065E070E00E94FD0488EB9BE0D1
:10043000FE013197F1F70197D9F780E090E064E190
:1004400070E00E94FD0481E090E064E170E00E94B1
:10045000FD0482E090E064E170E00E94FD0483E02E
:1004600090E064E170E00E94FD0484E090E064E1CB
:1004700070E00E94FD0485E090E064E170E00E947D
:10048000FD048CED95E0FE013197F1F70197D9F766
:100490001F5F123009F0A6CF0E94E006DF91CF91D6
:1004A0001F9108950E948A060E9418010E944A0521
:1004B0000E94E2010E949F058CB58F7B8CBD7894D1
:1004C00081E08093E7010E94FC0088E893E120E945
:1004D00031E0F9013197F1F70197D9F708951F93AA
:1004E000CF93DF930E945202A8ECB1E0E0EEF1E07E
:1004F00021E010828D919C911197019709F420833E
:100500001296319681E0A43DB80799F70E944F01F9
:1005100011E0C0E9D1E00E94BE000E9497000E9455
:10052000B1018091A101882321F00E944F01109216
:10053000A1018091E6018F5F8093E6018334A8F0EA
:100540001092E601A8ECB1E0E0EEF1E010828D91AE
:100550009C911197019709F410831296319681E0CE
:10056000A43DB80799F70E944F018CED95E0FE017C
:100570003197F1F7019779F2FACFFC01EE0FFF1FE7
:100580004130510569F4E255FE4F0190F081E02DB4
:10059000808102C0440F551F6A95E2F7842B0FC07B
:1005A000E255FE4F0190F081E02D208181E090E046
:1005B00002C0880F991F6A95E2F780958223808395
:1005C0000895FC01EE0FFF1F4130510569F4E85515
:1005D000FE4F0190F081E02D808102C0440F551F35
:1005E0006A95E2F7842B0FC0E855FE4F0190F08129
:1005F000E02D208181E090E002C0880F991F6A956C
:10060000E2F78095822380830895FC01EE0FFF1F9F
:10061000442381F0E855FE4F0190F081E02D2081C8
:1006200081E090E002C0880F991F6A95E2F7282BBD
:1006300020830895E855FE4F0190F081E02D208140
:1006400081E090E002C0880F991F6A95E2F78095DB
:10065000822380830895FC01EE0FFF1FEE55FE4FAD
:100660000190F081E02D208130E002C03595279582
:100670006A95E2F721703070C901089583309105C1
:10068000A9F08430910530F48130910549F002974A
:1006900049F40AC08430910559F0059719F40AC04D
:1006A00083E0089582E0089584E0089585E0089548
:1006B00086E0089587E008959C018630910508F052
:1006C00042C0FC01EA5FFD4F80818823E1F1C9014E
:1006D000880F991FDC01AC50BE4F2D913C911197B2
:1006E000FC01E851FE4F808191812817390750F0B5
:1006F0008D919C9120813181821B930B9C0140E064
:1007000050E010C0808191812D913C9140E050E0FB
:10071000215030404F4F5F4FA0E0B0E0281B390B15
:100720004A0B5B0B5695479537952795CA01B9013A
:100730002AE330E040E050E00E943807C901029708
:100740008F58914010F020E030E0C9010895FC017D
:100750008630910510F080E00895EA5FFD4F8081BA
:10076000089586309105A8F4FC01EA5FFD4F1082E0
:10077000FC01E050FE4F1082FC01EE0FFF1FDF0175
:10078000A851BE4F11961C921E92EC50FE4F118242
:10079000108208951F920F920FB60F9211242F937B
:1007A0003F938F939F9323B180910C028227382F20
:1007B00080FF1FC020FF0CC08091840090918500B5
:1007C0009093E9018093E80181E08093000211C0D9
:1007D00080910002882369F08091840090918500C7
:1007E0009093F5018093F40181E0809306021092CA
:1007F000000231FF1FC021FF0CC080918400909146
:1008000085009093EB018093EA0181E080930102DF
:1008100011C080910102882369F080918400909139
:1008200085009093F7018093F60181E080930702A1
:100830001092010232FF1FC022FF0CC08091840081
:10084000909185009093ED018093EC0181E080937D
:10085000020211C080910202882369F08091840015
:10086000909185009093F9018093F80181E0809345
:1008700008021092020233FF1FC023FF0CC08091B8
:100880008400909185009093EF018093EE0181E0C8
:100890008093030211C080910302882369F0809144
:1008A0008400909185009093FB018093FA0181E090
:1008B000809309021092030234FF1FC024FF0CC072
:1008C00080918400909185009093F1018093F001D4
:1008D00081E08093040211C080910402882369F0B2
:1008E00080918400909185009093FD018093FC019C
:1008F00081E080930A021092040235FF1FC025FF99
:100900000CC080918400909185009093F3018093B6
:10091000F20181E08093050211C0809105028823D5
:1009200069F080918400909185009093FF018093FD
:10093000FE0181E080930B021092050220930C02CD
:100940009F918F913F912F910F900FBE0F901F900D
:1009500018951F9386309105E0F4FC01EA5FFD4F86
:100960001082FC01E050FE4F10820E943E03182FBF
:1009700082E090E0612F41E050E00E94E10285E3D7
:100980008A95F1F782E090E0612F40E050E00E940C
:10099000E1021F9108951F9380E090E0FC01EA5F5F
:1009A000FD4F1082FC01E050FE4F10820196863010
:1009B0009105A1F710E0812F90E00E943E03682F7F
:1009C00082E090E041E050E00E94E1021F5F1630BB
:1009D00091F785E38A95F1F710E0812F90E00E946E
:1009E0003E03682F82E090E040E050E00E94E10288
:1009F0001F5F163091F71F91089586309105B8F565
:100A000040E050E0615070406A30710510F441E000
:100A100050E082309105C1F08330910528F40097B1
:100A200061F0019721F50CC084309105A9F0843064
:100A3000910570F00597D9F415C081E090E00EC0E3
:100A400081E090E061E00BC081E090E062E007C0EF
:100A500081E090E063E003C082E090E060E00E940B
:100A6000E102089582E090E061E00E94E1020895D1
:100A70001F93CF93DF93EC0110E069917991812F5F
:100A800090E00E94FD041F5F1630B9F7DF91CF910F
:100A90001F91089581E090E060E041E050E00E9405
:100AA000BD0281E090E061E041E050E00E94BD02C3
:100AB00081E090E062E041E050E00E94BD0281E010
:100AC00090E063E041E050E00E94BD0282E090E0EF
:100AD00060E041E050E00E94BD0282E090E061E011
:100AE00041E050E00E94BD0281E090E060E040E023
:100AF00050E00E94E10281E090E061E040E050E0DF
:100B00000E94E10281E090E062E040E050E00E945B
:100B1000E10281E090E063E040E050E00E94E10209
:100B200082E090E060E040E050E00E94E10282E07C
:100B300090E061E040E050E00E94E10208950F93F0
:100B40001F9300E0802F90E00E943E03182F82E068
:100B500090E0612F41E050E00E94BD0282E090E011
:100B6000612F40E050E00E94E1020F5F063051F734
:100B700080E090E060E040E050E00E94BD0280E054
:100B800090E061E040E050E00E94BD0280E090E033
:100B900062E040E050E00E94BD0280E090E063E04F
:100BA00040E050E00E94BD0280E090E064E040E060
:100BB00050E00E94BD0280E090E065E040E050E03F
:100BC0000E94BD0280E090E060E040E00E940503EA
:100BD00080E090E061E040E00E94050380E090E06A
:100BE00062E040E00E94050380E090E063E040E0C6
:100BF0000E94050380E090E064E040E00E9405036D
:100C000080E090E065E040E00E94050310928000E3
:100C100082E0809381008091680081608093680009
:100C200080916B008F6380936B0083B180930C0283
:100C300080E0E82FF0E0DF01AA5FBD4F1C92DF01EA
:100C4000A050BE4F1C92EE0FFF1FDF01A851BE4FF8
:100C500011961C921E92EC50FE4F118210828F5FF3
:100C6000863039F71F910F910895982F9860962B31
:100C700084EA8093BC008091BC0087FFFCCF8EE4A7
:100C80008093BB0084E88093BC008091BC0087FF08
:100C9000FCCF892F84608093BB0084E88093BC00E4
:100CA0008091BC0087FFFCCF85E08A95F1F79B7FA0
:100CB0009093BB0084E88093BC008091BC0087FFC8
:100CC000FCCF84E98093BC0085E38A95F1F7089511
:100CD0000F931F93182F062F807F0E943506812FB8
:100CE0008295807F602F0E9435061F910F91089595
:100CF0001F93182F60E00E9468061150123020F4F4
:100D000080E49FE10197F1F71F91089561E00E944F
:100D1000680608950F931F931092B90088E480939A
:100D2000B80084EF91E020E931E0F9013197F1F763
:100D30000197D9F780E360E00E94350680E29EE4E7
:100D40000197F1F780E360E00E94350608E512E0C4
:100D5000C8010197F1F780E360E00E943506C80101
:100D60000197F1F780E260E00E94350688E20E9478
:100D700078068CE00E94780686E00E94780681E082
:100D80000E94780680E49FE10197F1F71F910F918F
:100D90000895882311F080E401C080E0860F806808
:100DA0000E9478060895CF93DF93EC0103C021964B
:100DB0000E94860688818823D1F7DF91CF9108951C
:100DC00081E00E94780680E49FE10197F1F70895A1
:100DD0000F931F93CF93DF93062FEC01FC0120E0CC
:100DE00090E003C08191280F9F5F9017D8F32017E0
:100DF00091F480910D028823B1F50E94E00680E015
:100E000062E00E94C90684EB91E00E94D30681E073
:100E100080930D0228C010920D020E94E00680E02F
:100E200060E00E94C90610E01CC081EC91E00E94C5
:100E3000D306812F805D0E94860683EC91E00E949C
:100E4000D3068881805D0E94860685EC91E00E9431
:100E5000D306123021F481E060E00E94C9061F5FD2
:100E60002196101710F3DF91CF911F910F910895E4
:100E7000A1E21A2EAA1BBB1BFD010DC0AA1FBB1F9E
:100E8000EE1FFF1FA217B307E407F50720F0A21B10
:100E9000B30BE40BF50B661F771F881F991F1A947D
:100EA00069F760957095809590959B01AC01BD01A7
:080EB000CF010895F894FFCF73
:100EB80053797374656D20526561647900362053E7
:100EC800656E736F72732041637469766500536D44
:100ED8006172745061726B2053797374656D004947
:100EE8006E697469616C697A696E672E2E2E00428C
:100EF800793A204E6F6520536574656E74610020E1
:100F08002020204A616820436167756C610046555E
:100F18004C4C205041524B494E47004E4F205350A5
:100F2800414345530050303A002050313A00205098
:100F3800323A0050333A002050343A002050353AC3
:100F48000054657374696E67204C4544732E2E2EC9
:100F58000001230026002900250028002B0024007A
:100F680027002A0046554C4C205041524B494E47C9
:080F78000050003A00200000C7
:00000001FF
