:100000000C9434000C9451000C94A0010C945100F9
:100010000C9451000C9451000C9451000C9451001C
:100020000C9451000C9451000C9451000C9451000C
:100030000C9451000C9451000C9451000C945100FC
:100040000C9451000C9451000C9451000C945100EC
:100050000C9451000C9451000C9451000C945100DC
:100060000C9451000C94510011241FBECFEFD8E026
:10007000DEBFCDBF11E0A0E0B1E0E0E6FAE002C0F3
:1000800005900D92A037B107D9F711E0A0E7B1E0D4
:1000900001C01D92AE37B107E1F70E9457000C94E2
:1000A0002E050C94000081E0809373010895BF92A7
:1000B000CF92DF92EF92FF920F931F93CF93DF9334
:1000C00080E090E060E041E050E00E94E5000E94A6
:1000D000EE010E946601789480E091E00E94450262
:1000E000BB24B39491E0C92ED12C86E3E82E81E0A5
:1000F000F82E06E111E0C0E9D1E00E94C70180932B
:1001000072018091700190917101009719F001972F
:10011000B1F40BC0809172018A3088F4B0927301FF
:10012000D0927101C09270010AC0809172018B302F
:1001300030F0B092730110927101109270018091B1
:1001400073018823C9F1109273018091700190911D
:1001500071010197A9F480E090E060E041E050E097
:100160000E9409018091720100D000D0EDB7FEB766
:100170003196ADB7BEB712961C930E93119714C06B
:1001800080E090E060E040E050E00E940901809152
:10019000720100D000D0EDB7FEB73196ADB7BEB753
:1001A0001296FC92EE921197828313820E94300283
:1001B0000F900F900F900F9080ED97E0FE01319718
:1001C000F1F7019709F499CFF9CFFC01EE0FFF1F6A
:1001D0004130510569F4E45AFE4F0190F081E02D61
:1001E000808102C0440F551F6A95E2F7842B0FC02F
:1001F000E45AFE4F0190F081E02D208181E090E0F3
:1002000002C0880F991F6A95E2F780958223808348
:100210000895FC01EE0FFF1F4130510569F4EA5AC1
:10022000FE4F0190F081E02D808102C0440F551FE8
:100230006A95E2F7842B0FC0EA5AFE4F0190F081D5
:10024000E02D208181E090E002C0880F991F6A951F
:10025000E2F78095822380830895FC01EE0FFF1F53
:10026000442381F0EA5AFE4F0190F081E02D208175
:1002700081E090E002C0880F991F6A95E2F7282B71
:1002800020830895EA5AFE4F0190F081E02D2081ED
:1002900081E090E002C0880F991F6A95E2F780958F
:1002A000822380830895FC01EE0FFF1FE05BFE4F69
:1002B0000190F081E02D208130E002C03595279536
:1002C0006A95E2F721703070C90108951092C50057
:1002D00087E68093C40088E08093C10086E0809325
:1002E000C20082E691E090937B0180937A010895A9
:1002F000982F8091C00085FFFCCF9093C600089591
:10030000FC0107C08091C00085FFFCCF319690931F
:10031000C60090819923B1F70895982F8A3039F457
:100320008091C00085FFFCCF8DE08093C600809156
:10033000C00085FFFCCF9093C60080E090E0089558
:100340001F920F920FB60F9211248F939F9380915B
:100350007601882341F4109285001092840081E098
:10036000809376010DC080918400909185009093D8
:1003700075018093740181E080937701109276017A
:100380009F918F910F900FBE0F901F901895109214
:10039000770182E090E062E041E050E00E940901D4
:1003A00085E38A95F1F782E090E062E040E050E07A
:1003B0000E940901809177018823E1F36091740123
:1003C000709175017695679580E090E02AE330E0C2
:1003D00040E050E00E940E02C901089582E090E0E2
:1003E00062E041E050E00E94E50082E090E063E0DE
:1003F00040E050E00E94E50082E090E063E040E0F1
:100400000E942D011092800082E080938100E9E635
:10041000F0E0808184608083E99A0895A1E21A2E39
:10042000AA1BBB1BFD010DC0AA1FBB1FEE1FFF1F98
:10043000A217B307E407F50720F0A21BB30BE40BE8
:10044000F50B661F771F881F991F1A9469F760952F
:100450007095809590959B01AC01BD01CF010895E9
:10046000A0E0B0E0E6E3F2E00C940705FE0135966B
:100470006191719180917A0190917B01AF010E940D
:100480007A022096E2E00C9423050F931F93CF93FA
:10049000DF938C01E0917A01F0917B01838181FFF0
:1004A00021C0C0E0D0E00DC0E0917A01F0917B0165
:1004B00020853185BF01F9010995892B11F0CFEF16
:1004C000DFEFF80181918F01882371F7E0917A01C4
:1004D000F0917B01208531858AE0BF01F901099502
:1004E000892B11F0CFEFDFEFCE01DF91CF911F917C
:1004F0000F910895ABE0B0E0E0E8F2E00C94F7046F
:100500003C012B015A01FC0117821682838181FD77
:1005100003C06FEF7FEFC6C19AE0892E1E010894D9
:10052000211C311CF3012381F20123FD859123FF5E
:1005300081912F01882309F4B2C1853239F423FD5A
:10054000859123FF81912F01853229F490E0B30139
:100550000E946D04E7CF982FFF24EE249924FFE139
:10056000FF15D0F09B3269F09C3228F4903259F09C
:10057000933291F40EC09D3249F0903369F441E01A
:1005800024C052E0F52A84E0F82A28C098E0F92A2D
:1005900025C0E0E1FE2A22C0F7FC29C0892F805344
:1005A0008A3070F4F6FE05C0989C902C1124980EA9
:1005B00015C0E89CE02C1124E80EF0E2FF2A0EC0E2
:1005C0009E3229F4F6FC6BC140E4F42A07C09C3645
:1005D00019F450E8F52A02C0983649F4F20123FDD7
:1005E000959123FF91912F01992309F0B8CF892F7D
:1005F0008554833018F08052833038F444E050E062
:10060000A40EB51E5FE359830FC0933631F09337C4
:1006100079F0933509F056C020C0F50180818983B7
:1006200042E050E0A40EB51E610101E010E012C0EE
:10063000F501C080D180F6FC03C06FEF7FEF02C0F0
:10064000692D70E042E050E0A40EB51EC6010E9484
:1006500062048C015FE7F52214C0F501C080D180EF
:10066000F6FC03C06FEF7FEF02C0692D70E042E03F
:1006700050E0A40EB51EC6010E9457048C0150E83C
:10068000F52AF3FE07C01AC080E290E0B3010E9491
:100690006D04EA948E2D90E008171907A8F30EC098
:1006A000F601F7FC8591F7FE81916F0190E0B301AF
:1006B0000E946D04E110EA940150104001151105EB
:1006C00079F7EAC0943611F0993669F5F7FE08C05B
:1006D000F501208131814281538184E090E00AC09C
:1006E000F501808191819C01442737FD4095542F6D
:1006F00082E090E0A80EB91E9FE6F92257FF09C0DC
:1007000050954095309521953F4F4F4F5F4FE0E812
:10071000FE2ACA01B901A1012AE030E00E94990431
:10072000D82ED21840C0953729F41F2D1F7E2AE0FD
:1007300030E01DC01F2D197F9F3661F0903720F4E7
:10074000983509F0ACC00FC0903739F0983709F0F0
:10075000A6C004C028E030E00AC0106114FD146097
:1007600020E130E004C014FD166020E132E017FF04
:1007700008C0F501608171818281938144E050E07D
:1007800008C0F50180819181BC0180E090E042E0E9
:1007900050E0A40EB51EA1010E949904D82ED218D3
:1007A0008FE7F82EF122F6FE0BC05EEFF522D9148A
:1007B00038F4F4FE07C0F2FC05C08FEEF82202C048
:1007C0001D2D01C0192DF4FE0DC0FE01ED0DF11D12
:1007D0008081803319F499EEF92208C01F5FF2FE80
:1007E00005C003C08F2D867809F01F5F0F2DF3FC25
:1007F00014C0F0FE0FC01E1510F09D2C0BC09D2CD8
:100800009E0C911A1E2D06C080E290E0B3010E945A
:100810006D041F5F1E15C0F304C01E1510F4E11A0D
:1008200001C0EE2404FF0FC080E390E0B3010E94FA
:100830006D0402FF1DC001FD03C088E790E00EC0FB
:1008400088E590E00BC0802F867891F001FF02C010
:100850008BE201C080E2F7FC8DE290E0B3010E94E0
:100860006D0406C080E390E0B3010E946D049A9489
:10087000D914C0F3DA94F101ED0DF11D808190E0FF
:10088000B3010E946D04DD20A9F706C080E290E06C
:10089000B3010E946D04EA94EE20C1F743CEF30148
:1008A00066817781CB012B96E2E10C941305FC0164
:1008B0000590615070400110D8F7809590958E0F8B
:1008C0009F1F0895FC016150704001900110D8F7FE
:1008D000809590958E0F9F1F08950F931F93CF9330
:1008E000DF938C01EB018B8181FF1BC082FF0DC068
:1008F0002E813F818C819D812817390764F4E8811E
:10090000F9810193F983E88306C0E885F985802F92
:100910000995892B31F48E819F8101969F838E8367
:1009200002C00FEF1FEFC801DF91CF911F910F9110
:100930000895FA01AA27283051F1203181F1E89475
:100940006F936E7F6E5F7F4F8F4F9F4FAF4FB1E0C2
:100950003ED0B4E03CD0670F781F891F9A1FA11DBD
:10096000680F791F8A1F911DA11D6A0F711D811DBE
:10097000911DA11D20D009F468943F912AE0269F83
:1009800011243019305D3193DEF6CF010895462FE2
:100990004770405D4193B3E00FD0C9F7F6CF462FC3
:1009A0004F70405D4A3318F0495D31FD405241932C
:1009B00002D0A9F7EACFB4E0A695979587957795E9
:1009C0006795BA95C9F700976105710508959B0170
:1009D000AC010A2E06945795479537952795BA95F9
:1009E000C9F7620F731F841F951FA01D08952F92D2
:1009F0003F924F925F926F927F928F929F92AF92AF
:100A0000BF92CF92DF92EF92FF920F931F93CF93FB
:100A1000DF93CDB7DEB7CA1BDB0B0FB6F894DEBF92
:100A20000FBECDBF09942A88398848885F846E84B8
:100A30007D848C849B84AA84B984C884DF80EE8002
:100A4000FD800C811B81AA81B981CE0FD11D0FB60B
:100A5000F894DEBF0FBECDBFED010895F894FFCF2F
:100A600053797374656D20496E697469616C697A34
:100A700065642E2E2E004341522044455445435474
:100A80004544202D2044697374616E63653A2025C6
:100A90006420636D0A004E4F20434152202D2044B4
:100AA000697374616E63653A20256420636D0A0082
:100AB000230026002900250028002B002400270001
:100AC0002A0000000002000000008D01000000006C
:00000001FF
