:100000000C9434000C9451000C9431010C94510068
:100010000C9451000C9451000C9451000C9451001C
:100020000C9451000C9451000C9451000C9451000C
:100030000C9451000C9451000C9451000C945100FC
:100040000C9451000C9451000C9451000C945100EC
:100050000C9451000C9451000C9451000C945100DC
:100060000C9451000C94510011241FBECFEFD8E026
:10007000DEBFCDBF11E0A0E0B1E0E6E8F3E002C0F2
:1000800005900D92A231B107D9F711E0A2E1B1E0DC
:1000900001C01D92AA31B107E1F70E9457000C94EC
:1000A000C1010C94000081E0809315010895FF9236
:1000B0000F931F93CF93DF9380E090E060E041E0E7
:1000C00050E00E94B0000E947F017894FF24F394D6
:1000D00001E010E0C0E9D1E00E94580180931401D2
:1000E0008091120190911301009719F00197B1F4DA
:1000F0000BC0809114018A3088F4F092150110939E
:100100001301009312010AC0809114018B3030F06A
:10011000F0921501109213011092120180911501B5
:100120008823A9F01092150180911201909113017A
:10013000019731F480E090E060E041E050E005C0DC
:1001400080E090E060E040E050E00E94D40088EE63
:1001500093E0FE013197F1F7019709F4BDCFF9CF94
:10016000FC01EE0FFF1F4130510569F4E45FFE4FC3
:100170000190F081E02D808102C0440F551F6A95E7
:10018000E2F7842B0FC0E45FFE4F0190F081E02D79
:10019000208181E090E002C0880F991F6A95E2F704
:1001A0008095822380830895FC01EE0FFF1F41306C
:1001B000510569F4EA5FFE4F0190F081E02D8081E6
:1001C00002C0440F551F6A95E2F7842B0FC0EA5F07
:1001D000FE4F0190F081E02D208181E090E002C08F
:1001E000880F991F6A95E2F780958223808308958E
:1001F000FC01EE0FFF1F442381F0EA5FFE4F0190E8
:10020000F081E02D208181E090E002C0880F991FED
:100210006A95E2F7282B20830895EA5FFE4F01904C
:10022000F081E02D208181E090E002C0880F991FCD
:100230006A95E2F78095822380830895FC01EE0F92
:10024000FF1FE050FF4F0190F081E02D208130E052
:1002500002C0359527956A95E2F721703070C90183
:1002600008951F920F920FB60F9211248F939F93B0
:1002700080911801882341F4109285001092840027
:1002800081E0809318010DC08091840090918500D9
:10029000909317018093160181E0809319011092C9
:1002A00018019F918F910F900FBE0F901F9018957E
:1002B0001092190182E090E062E041E050E00E947B
:1002C000D40085E38A95F1F782E090E062E040E0B7
:1002D00050E00E94D400809119018823E1F36091DD
:1002E0001601709117017695679580E090E02AE3FA
:1002F00030E040E050E00E949F01C901089582E093
:1003000090E062E041E050E00E94B00082E090E0C6
:1003100063E040E050E00E94B00082E090E063E0E3
:1003200040E00E94F8001092800082E080938100FB
:10033000E9E6F0E0808184608083E99A0895A1E293
:100340001A2EAA1BBB1BFD010DC0AA1FBB1FEE1F4F
:10035000FF1FA217B307E407F50720F0A21BB30B9A
:10036000E40BF50B661F771F881F991F1A9469F716
:1003700060957095809590959B01AC01BD01CF0172
:060380000895F894FFCF80
:10038600230026002900250028002B002400270032
:020396002A003B
:00000001FF
