:100000000C9434000C9451000C9451000C94510049
:100010000C9451000C9451000C9451000C9451001C
:100020000C9451000C9451000C9451000C9451000C
:100030000C9451000C9451000C9451000C945100FC
:100040000C9451000C9451000C9451000C945100EC
:100050000C9451000C9451000C9451000C945100DC
:100060000C9451000C94510011241FBECFEFD8E026
:10007000DEBFCDBF11E0A0E0B1E0EAEAF4E002C0EB
:1000800005900D92AA33B107D9F711E0AAE3B1E0C8
:1000900001C01D92AB33B107E1F70E9453000C94ED
:1000A00053020C940000EF92FF920F931F93DF9383
:1000B000CF9300D000D000D0CDB7DEB70E94A5010D
:1000C0000E94FB0180E060E00E94E40180E091E09A
:1000D0000E94EE0181E060E00E94E40181E191E094
:1000E0000E94EE0180E593EC20E931E0F9013197BF
:1000F000F1F70197D9F70E94FB01DE011196E1E2C9
:10010000F1E086E001900D928150E1F77E010894C4
:10011000E11CF11C00E911E0C70166E00E94030246
:1001200080E197E2F8013197F1F70197D9F7F4CF21
:100130008130910501F18130910520F0029709F09D
:1001400043C02AC0452B59F024B181E090E002C0A1
:10015000880F991F6A95E2F7282B24B9089524B1D6
:1001600081E090E002C0880F991F6A95E2F78095C0
:10017000822384B908959C0102C0220F331F6A951F
:10018000E2F7452B19F087B1822B04C097B1822F7B
:100190008095892387B90895452B59F02AB181E0CC
:1001A00090E002C0880F991F6A95E2F7282B2AB9C0
:1001B00008952AB181E090E002C0880F991F6A95E6
:1001C000E2F7809582238AB908958130910501F183
:1001D0008130910520F0029709F043C02AC0452BD9
:1001E00059F025B181E090E002C0880F991F6A950F
:1001F000E2F7282B25B9089525B181E090E002C0EF
:10020000880F991F6A95E2F78095822385B9089532
:100210009C0102C0220F331F6A95E2F7452B19F0AB
:1002200088B1822B04C098B1822F8095892388B928
:100230000895452B59F02BB181E090E002C0880F62
:10024000991F6A95E2F7282B2BB908952BB181E00D
:1002500090E002C0880F991F6A95E2F7809582238B
:100260008BB908958130910549F08130910520F0D6
:10027000029769F080E0089583B101C086B190E0F3
:1002800002C0959587956A95E2F78170089589B1C6
:1002900090E002C0959587956A95E2F78170089580
:1002A000982F9860962B84EA8093BC008091BC00C4
:1002B00087FFFCCF8EE48093BB0084E88093BC0072
:1002C0008091BC0087FFFCCF892F84608093BB00A6
:1002D00084E88093BC008091BC0087FFFCCF85E060
:1002E0008A95F1F79B7F9093BB0084E88093BC00D4
:1002F0008091BC0087FFFCCF84E98093BC0085E33C
:100300008A95F1F708950F931F93182F062F807F7A
:100310000E945001812F8295807F602F0E945001A2
:100320001F910F9108951F93182F60E00E94830181
:100330001150123020F480E49FE10197F1F71F91F2
:10034000089561E00E94830108950F931F93109216
:10035000B90088E48093B80084EF91E020E931E0AF
:10036000F9013197F1F70197D9F780E360E00E9436
:10037000500180E29EE40197F1F780E360E00E9483
:10038000500108E512E0C8010197F1F780E360E051
:100390000E945001C8010197F1F780E260E00E94DD
:1003A000500188E20E9493018CE00E94930186E054
:1003B0000E94930181E00E94930180E49FE10197F4
:1003C000F1F71F910F910895882311F080E401C087
:1003D00080E0860F80680E9493010895CF93DF9399
:1003E000EC0103C021960E94A10188818823D1F7E6
:1003F000DF91CF91089581E00E94930180E49FE115
:100400000197F1F708950F931F93CF93DF93062F72
:10041000EC01FC0120E090E003C08191280F9F5F78
:100420009017D8F3201791F480913A018823B1F501
:100430000E94FB0180E062E00E94E40187E291E01B
:100440000E94EE0181E080933A0128C010923A01A7
:100450000E94FB0180E060E00E94E40110E01CC00B
:1004600084E391E00E94EE01812F805D0E94A10152
:1004700086E391E00E94EE018881805D0E94A101E7
:1004800088E391E00E94EE01123021F481E060E007
:100490000E94E4011F5F2196101710F3DF91CF91A6
:0A04A0001F910F910895F894FFCF0B
:1004AA00536D6172745061726B2053797374656D08
:1004BA0000496E697469616C697A696E672E2E2EBD
:1004CA000000010100010146554C4C205041524B9D
:0A04DA00494E470050003A00200090
:00000001FF
